:1000000000200020C1000000C7000000C700000061
:1000100000000000000000000000000000000000E0
:10002000000000000000000000000000C700000009
:100030000000000000000000C7000000C700000032
:10004000C7000000C7000000C7000000C700000094
:10005000C7000000C7000000C7000000C700000084
:10006000C7000000C7000000C7000000C700000074
:10007000C7000000C7000000C7000000C700000064
:10008000C7000000C7000000C7000000C700000054
:10009000C7000000C7000000C7000000C700000044
:1000A000C7000000C7000000C7000000C700000034
:1000B000C7000000C7000000C7000000C700000024
:1000C00000F010F8FEE7FEE780B582B000AF786080
:1000D000C0467B685A1E7A60002BFAD1BD4602B03A
:1000E00080BDC04680B500AF114B114A1268802117
:1000F00009030A431A600F4B0E4A12688021C90295
:100100000A431A600C4B0C4A1268802189000A438A
:100110001A600A4B181CFFF7D7FF074B064A1268F4
:1001200007490A401A60074B181CFFF7CDFFE9E7A3
:1001300014100240000800481408004840420F0014
:08014000FFFDFFFF20A10700F5
:00000001FF
